S01400006279676765726E4E6F6465312E737265636B
S11300000C94B8010C94D5010C94D5010C94A7025E
S11300100C94D5010C94D5010C94D5010C94D50104
S11300200C94D5010C94D5010C94D5010C94D501F4
S11300300C94D5010C94D5010C94D5010C94D501E4
S11300400C94D5010C94D5010C94D5010C94D501D4
S11300500C94D5010C94D5010C94D5010C94D501C4
S11300600C94D5010C94D5010C94D5010C94D501B4
S1130070000000000000000000065F5F06000000B2
S11300800007070007070000147F7F147F7F140018
S1130090242E6B6B3A120000466630180C66620020
S11300A0307A4F5D377A48000407030000000000EF
S11300B0001C3E63410000000041633E1C00000040
S11300C0082A3E1C1C3E2A0808083E3E0808000078
S11300D000A0E0600000000008080808080800000C
S11300E000006060000000006030180C060301008E
S11300F03E7F594D7F3E000042427F7F40400000DA
S1130100627359496F660000226349497F360000D3
S1130110181C16137F7F1000276745457D390000A2
S11301203C7E4B4979300000036371190F070000CE
S1130130367F49497F360000064F49693F1E00005B
S113014000006C6C0000000000A0EC6C00000000DB
S1130150081C366341000000141414141414000025
S1130160004163361C080000020351590F060000C9
S11301703E7F415D5D1F1E007C7E13137E7C00006C
S1130180417F7F49497F36001C3E63414163220021
S1130190417F7F41637F1C00417F7F495D41630054
S11301A0417F7F491D0103001C3E6341517372006E
S11301B07F7F08087F7F000000417F7F41000000AF
S11301C0307040417F3F0100417F7F081C7763000E
S11301D0417F7F41406070007F7F060C067F7F0077
S11301E07F7F060C187F7F001C3E6341633E1C002A
S11301F0417F7F49090F06001E3F21717F5E000089
S1130200417F7F19396F460026674D597B320000C4
S113021003417F7F410300007F7F40407F7F0000D8
S11302201F3F60603F1F00007F7F3018307F7F00DA
S113023063771C081C776300074F78784F0700002A
S11302406773594D47637100007F7F41410000008F
S11302500103060C183060000041417F7F0000005C
S1130260080C0603060C0800808080808080808053
S11302700000030704000000207454543C7840003C
S1130280413F7F44447C3800387C44446C2800005F
S1130290307848493F7F4000387C54545C18000053
S11302A0487E7F490302000098BCA4A4F87C0400A3
S11302B0417F7F08047C780000447D7D400000007D
S11302C040C484FD7D000000417F7F10386C4400F1
S11302D000417F7F400000007C7C0C180C7C78007F
S11302E07C7C04047C780000387C44447C38000026
S11302F084FCF8A4243C1800183C24A4F8FC8400D2
S1130300447C78441C180000485C54547424000055
S113031000043E7F442400003C7C40403C7C400080
S11303201C3C60603C1C00003C7C6030607C3C00F9
S1130330446C3810386C44009CBCA0A0FC7C0000C9
S11303404C64745C4C64000008083E774141000032
S113035000000077770000004141773E0808000064
S1130360020301030203010018181818FF7E3C1849
S113037011241FBECFEFD4E0DEBFCDBF11E0A0E05B
S1130380B1E0E4E1F6E102C005900D92A639B107AF
S1130390D9F721E0A6E9B1E001C01D92A93AB2075C
S11303A0E1F70E94E1030C94080B0C9400001DBCBF
S11303B01CBC81E090E09BBD8ABD8FB580648FBD7D
S11303C08EB589608EBD81B3806281BB0895CF9262
S11303D0DF92EF92FF920F931F93CF938C01E0E093
S11303E0F4E110826081FC01C181C617F8F070E06D
S11303F080E090E00E9478056B017C016C2F70E036
S113040080E090E00E947A059B01AC01C701B6012F
S11304100E94D00420E030E048EC52E40E9406063A
S11304200E944205CCE9C60FC19511C02C2F30E0C3
S1130430862F90E0821B930B6FEF70E0621B730BAF
S11304400E94730684E6869FC02D1124C195609195
S11304500014F80110811617E8F070E080E090E0D5
S11304600E9478056B017C01612F70E080E090E0D0
S11304700E947A059B01AC01C701B6010E94D00419
S113048020E030E048EC52E40E9406060E94420557
S1130490645610C0212F30E0862F90E0821B930B0E
S11304A06FEF70E0621B730B0E94730684E6869FF5
S11304B0602D1124E0E0F4E1808190817C2FCF91C4
S11304C01F910F91FF90EF90DF90CF900895E0E09F
S11304D0F4E11082908180810895472F872F770F50
S11304E0990B99231CF49195819591099C01C397CB
S11304F024F0433324F082E003C084E001C083E0AD
S1130500062E000C770B77231CF471956195710905
S113051051E0633371050CF450E091E0261737077E
S11305200CF090E0952329F0433314F080E0089513
S113053081E0089586B18E7F86B987B1816087B9DD
S113054084B78E7F84BF8BB780628BBF08951F9260
S11305500F920FB60F9211248F9381E0809396012E
S11305608F910F900FBE0F901F90189582E191E02C
S11305709F938F930E94E606E0E0F0E18EEA808389
S113058081EA80838AED808382E1808388EC8083A2
S113059088EA80838FE3808385ED808380E880838D
S11305A081E8808380E5808389ED808381E2808394
S11305B080E2808382E080838BED808380E380838C
S11305C08DEA8083108284EA808386EA80838FEABE
S11305D080830F900F900895806B8093001008958E
S11305E0982F9F70E0E0F0E1908382958F70806196
S11305F0808308950E94EC0280E00E94F00280E073
S113060003C0109200128F5F8823DCF70895CF9304
S1130610C0E004C08C2F0E94FA02CF5FC830D0F330
S113062080E00E94EC0280E00E94F002CF910895E5
S1130630CF93C62F0E94EC028C2F0E94F002CF9120
S113064008959C0190E011C0F901FF27B097EE0FC7
S1130650FF1FEE0FFF1FEE0FFF1FE90FF11DE05903
S1130660FF4FE491E09300129F5F983068F3089580
S1130670EF92FF920F931F93CF93DF937C01862F0A
S1130680642F0E941803F70101900020E9F73197C5
S11306908F010E191F09C0E0D0E008C0F701EC0F6C
S11306A0FD1F808190E00E9421032196C017D1078D
S11306B0A8F3DF91CF911F910F91FF90EF900895D0
S11306C0AC0180E090E001C00196FC01EE0FFF1F39
S11306D0E40FF51F20813181232BB1F70895CF92C8
S11306E0DF92EF92FF920F931F93CF93DF938C01CE
S11306F07B010E940703C8010E946003D82EC92E03
S11307009F938F9386E291E09F938F930E94E606D6
S11307100F900F900F900F90C0E0D0E025C0CE1541
S1130720DF05B1F480E00E94F0028C2F0E94EC02FD
S11307308FE790E00E942103FE01EE0FFF1FE00F00
S1130740F11F4AE06C2F808191810E9438030BC015
S1130750FE01EE0FFF1FE00FF11F4AE06C2F8081B6
S113076091810E94380321968D2D9C2DC817D9079D
S1130770B0F2DF91CF911F910F91FF90EF90DF9036
S1130780CF90089585B7806885BF80B7806280BFA9
S113079085B38FEF85BB08955D9BFECF8CB908951B
S11307A05F9BFECF8CB1089590BD89B988E18AB969
S11307B08EE880BD60ED73E08CEC93E00E949B06B4
S11307C008958FE190E00E94D4038BE391E09F931E
S11307D08F930E94E6060E94D7010E94C2030E94E2
S11307E0B6020E949A0280919D0190919E010E94FE
S11307F0670290939E0180939D010E94070360917C
S113080097017091980186E091E00E946F037894BB
S11308100F900F908DE991E00E94E7016093990198
S113082070939A0180939B0190939C0120911101F4
S1130830209310010E946D0280931101C1E09091F8
S11308401001981301C0C0E091E0823009F090E0FB
S1130850C92386E091E00E946003AC014150510934
S1130860209197013091980191E0241735070CF0FD
S113087090E0CC2319F1992309F180919A01282F52
S1130880082E000C330B3F938F938EE491E09F93DB
S11308908F930E94E60660919701709198016F5FB3
S11308A07F4F709398016093970186E091E00E94D6
S11308B06F030F900F900F900F9036C0909111011D
S11308C041E080911001891301C040E081E0933040
S11308D009F080E0842391E0121613060CF090E0F6
S11308E0882311F1992301F180919A01282F082E70
S11308F0000C330B3F938F938EE491E09F938F937F
S11309000E94E60660919701709198016150710907
S1130910709398016093970186E091E00E946F03C1
S11309200F900F900F900F9080919601882309F4F7
S113093071CF109296018091970190919801813026
S1130940910599F01CF4892B39F064CF823091051C
S1130950A9F00397E1F05ECF86E691E09F938F9331
S11309600E94E6060F900F9055CF8BE691E09F937F
S11309708F930E94E6060F900F904CCF89E791E089
S11309809F938F930E94E6060F900F9043CF83E8C6
S113099091E09F938F930E94E6060F900F903ACFB9
S11309A00E94E4040C94CC050E94C50558F00E94F2
S11309B0BE0540F029F45F3F29F00C94B5055111B0
S11309C00C9400060C94BB050E94DD0568F3992382
S11309D0B1F3552391F3951B550BBB27AA27621737
S11309E07307840738F09F5F5F4F220F331F441F44
S11309F0AA1FA9F335D00E2E3AF0E0E832D0915078
S1130A005040E695001CCAF72BD0FE2F29D0660F64
S1130A10771F881FBB1F261737074807AB07B0E8A7
S1130A2009F0BB0B802DBF01FF2793585F4F3AF0AD
S1130A309E3F510578F00C94B5050C9400065F3F79
S1130A40E4F3983ED4F3869577956795B795F79533
S1130A509F5FC9F7880F911D9695879597F908951B
S1130A60E1E0660F771F881FBB1F621773078407B7
S1130A70BA0720F0621B730B840BBA0BEE1F88F7C6
S1130A80E09508950E9449056894B1110C940006FC
S1130A9008950E94E50588F09F5798F0B92F99278B
S1130AA0B751B0F0E1F0660F771F881F991F1AF055
S1130AB0BA95C9F714C0B13091F00E94FF05B1E0B6
S1130AC008950C94FF05672F782F8827B85F39F0B5
S1130AD0B93FCCF3869577956795B395D9F73EF4EE
S1130AE090958095709561957F4F8F4F9F4F089596
S1130AF0E89409C097FB3EF49095809570956195B4
S1130B007F4F8F4F9F4F9923A9F0F92F96E9BB2769
S1130B109395F695879577956795B795F111F8CFE5
S1130B20FAF4BB0F11F460FF1BC06F5F7F4F8F4F50
S1130B309F4F16C0882311F096E911C0772321F046
S1130B409EE8872F762F05C0662371F096E8862FDE
S1130B5070E060E02AF09A95660F771F881FDAF735
S1130B60880F9695879597F9089597F99F6780E878
S1130B7070E060E008959FEF80EC089500240A94EB
S1130B801616170618060906089500240A94121664
S1130B901306140605060895092E0394000C11F497
S1130BA0882352F0BB0F40F4BF2B11F460FF04C044
S1130BB06F5F7F4F8F4F9F4F089557FD9058440F9D
S1130BC0551F59F05F3F71F04795880F97FB991FA8
S1130BD061F09F3F79F08795089512161306140665
S1130BE0551FF2CF4695F1DF08C0161617061806F2
S1130BF0991FF1CF86957105610508940895E894CD
S1130C00BB2766277727CB0197F908950E94190619
S1130C100C94CC050E94BE0538F00E94C50520F056
S1130C20952311F00C94B5050C94BB0511240C9478
S1130C3000060E94DD0570F3959FC1F3950F50E007
S1130C40551F629FF001729FBB27F00DB11D639F7A
S1130C50AA27F00DB11DAA1F649F6627B00DA11D20
S1130C60661F829F2227B00DA11D621F739FB00DC6
S1130C70A11D621F839FA00D611D221F749F332736
S1130C80A00D611D231F849F600D211D822F762FCF
S1130C906A2F11249F5750409AF0F1F088234AF0AC
S1130CA0EE0FFF1FBB1F661F771F881F9150504018
S1130CB0A9F79E3F510580F00C94B5050C940006ED
S1130CC05F3FE4F3983ED4F3869577956795B7959F
S1130CD0F795E7959F5FC1F7FE2B880F911D9695B9
S1130CE0879597F9089597FB072E16F4009407D07B
S1130CF077FD09D00E94870607FC05D03EF4909545
S1130D0081959F4F0895709561957F4F0895AA1B13
S1130D10BB1B51E107C0AA1FBB1FA617B70710F0E2
S1130D20A61BB70B881F991F5A95A9F78095909514
S1130D30BC01CD0108950F931F93CF93DF930097C8
S1130D4031F46115710519F480E090E03AC08B012B
S1130D50EC016EE070E081E090E00E94DD08FC01AF
S1130D60892B91F380E883830115110571F01387B2
S1130D70028781E8838380919F019091A001892B50
S1130D8021F4F093A001E0939F012097C9F0D1874B
S1130D90C0878381826083838091A1019091A201A5
S1130DA0892B71F4F093A201E093A1018091A30136
S1130DB09091A401892B21F4F093A401E093A30161
S1130DC0CF01DF91CF911F910F910895A0E0B0E082
S1130DD0ECEEF6E00C94E10AAE014B5F5F4FFA01D2
S1130DE061917191AF018091A1019091A2010E9442
S1130DF0FC06E2E00C94FD0AABE0B0E0E2E0F7E0D0
S1130E000C94D10A6C017B018A01FC0117821682C1
S1130E10838181FFCCC1CE0101963C01F60193810F
S1130E20F70193FD859193FF81917F01882309F454
S1130E30BAC1853239F493FD859193FF81917F0185
S1130E40853229F4B60190E00E94370AE7CF912C4D
S1130E50212C312CFFE1F315D8F08B3279F038F4E2
S1130E60803279F08332A1F4232D20611DC08D32AC
S1130E7061F0803369F4232D216016C0832D8260D4
S1130E80382EE32DE4603E2E2AC0F32DF8601DC0F9
S1130E9037FC2DC020ED280F2A3040F08E32B9F4F3
S1130EA036FC81C1232D2064322E19C036FE06C0C3
S1130EB08AE0989E200D1124922E11C0EAE02E9E05
S1130EC0200D1124222EF32DF0623F2E08C08C3603
S1130ED021F4832D8068382E02C0883641F4F7014E
S1130EE093FD859193FF81917F018111B3CF982F59
S1130EF09F7D9554933028F40C5F1F4F9FE3998393
S1130F000DC0833631F0833771F0833509F059C051
S1130F1021C0F801808189830E5F1F4F8824839448
S1130F20912C530113C02801F2E04F0E511CF8011B
S1130F30A080B18036FE03C0692D70E002C06FEF5F
S1130F407FEFC5010E942C0A4C018201F32DFF772B
S1130F503F2E16C0280122E0420E511CF801A08049
S1130F60B18036FE03C0692D70E002C06FEF7FEFE1
S1130F70C5010E941A0A4C01F32DF0683F2E82012C
S1130F8033FC1BC0822D90E088169906B0F4B6019C
S1130F9080E290E00E94370A2A94F4CFF50137FCEE
S1130FA0859137FE81915F01B60190E00E94370A76
S1130FB021102A9421E0821A91088114910471F776
S1130FC0E8C0843611F0893641F5F80137FE07C0D0
S1130FD060817181828193810C5F1F4F08C06081A1
S1130FE07181072E000C880B990B0E5F1F4FF32D98
S1130FF0FF763F2E97FF09C0909580957095619577
S11310007F4F8F4F9F4FF0683F2E2AE030E0A301BF
S11310100E94730A882E861845C0853731F4232D23
S11310202F7EB22E2AE030E025C0932D997FB92E71
S11310308F36C1F018F4883579F0B5C0803719F0CF
S1131040883721F0B0C0E92FE061BE2EB4FE0DC098
S1131050FB2DF460BF2E09C034FE0AC0292F266080
S1131060B22E06C028E030E005C020E130E002C026
S113107020E132E0F801B7FE07C06081718182810E
S113108093810C5F1F4F06C06081718180E090E006
S11310900E5F1F4FA3010E94730A882E8618FB2D32
S11310A0FF773F2E36FE0DC0232D2E7FA22E8914EE
S11310B058F434FE0BC032FC09C0832D8E7EA82E5A
S11310C005C0B82CA32C03C0B82C01C0B92CA4FEB5
S11310D00FC0FE01E80DF11D8081803321F49A2DAB
S11310E0997EA92E09C0A2FE06C0B394B39404C08D
S11310F08A2D867809F0B394A3FC11C0A0FE06C023
S1131100B21488F4280C922C9B180EC0B21460F40C
S1131110B60180E290E00E94370AB394F7CFB2148C
S113112018F42B1802C0982C212CA4FE10C0B60170
S113113080E390E00E94370AA2FE17C0A1FC03C01E
S113114088E790E002C088E590E0B6010CC08A2DE3
S1131150867859F0A1FE02C08BE201C080E2A7FCB0
S11311608DE2B60190E00E94370A891438F4B60182
S113117080E390E00E94370A9A94F7CF8A94F301AF
S1131180E80DF11D8081B60190E00E94370A8110BC
S1131190F5CF222009F442CEB60180E290E00E940D
S11311A0370A2A94F6CFF6018681978102C08FEF21
S11311B09FEF2B96E2E10C94ED0A0F931F93CF93CC
S11311C0DF93869F8001879F100D969F100D112439
S11311D0C8010E94F908EC01009729F0A80160E019
S11311E070E00E94250ACE01DF91CF911F910F91EB
S11311F008950F931F93CF93DF938230910510F4DA
S113120082E090E0E091A701F091A80120E030E0B5
S1131210A0E0B0E0309719F140815181028113813F
S113122048175907C8F08417950769F4109731F0E7
S113123012960C93129713961C9327C00093A70140
S11312401093A80122C02115310519F04217530744
S113125018F49A01BD01EF01DF01F801DBCF21157C
S11312603105F9F0281B390B2430310580F48A81CB
S11312709B816115710521F0FB019383828304C076
S11312809093A8018093A701FE01329644C0FE0109
S1131290E20FF31F819391932250310939832883FC
S11312A03AC02091A5013091A601232B41F420914D
S11312B00201309103013093A6012093A5012091EE
S11312C00001309101012115310541F42DB73EB7DC
S11312D04091040150910501241B350BE091A501B7
S11312E0F091A601E217F307A0F42E1B3F0B281779
S11312F0390778F0AC014E5F5F4F2417350748F08B
S11313004E0F5F1F5093A6014093A50181939193C3
S113131002C0E0E0F0E0CF01DF91CF911F910F9187
S11313200895CF93DF93009709F481C0FC013297AD
S113133013821282A091A701B091A801109781F4A1
S113134020813181820F931F2091A5013091A60144
S11313502817390751F5F093A601E093A50167C05A
S1131360ED0120E030E0CE17DF0740F44A815B81D5
S11313709E0141155105F1F0EA01F5CFD383C283F3
S113138040815181840F951FC817D90759F488816A
S11313909981840F951F0296918380838A819B8112
S11313A0938382832115310529F4F093A801E093F6
S11313B0A7013DC0E901FB83EA8349915991C40F18
S11313C0D51FEC17FD0761F480819181840F951F6F
S11313D00296E90199838883828193819B838A831E
S11313E0E0E0F0E012968D919C911397009719F02C
S11313F0FD01DC01F7CF8D919C9111979D012E5F2A
S11314003F4F820F931F2091A5013091A601281709
S1131410390769F4309729F41092A8011092A701B2
S113142002C013821282B093A601A093A501DF919A
S1131430CF910895FC010590615070400110D8F7D8
S1131440809590958E0F9F1F0895DC0101C06D93C8
S113145041505040E0F70895FC0161507040019004
S11314600110D8F7809590958E0F9F1F08950F93C4
S11314701F93CF93DF93FB01238121FD03C08FEFE3
S11314809FEF2CC022FF16C04681578124813581ED
S11314904217530744F4A081B1819D012F5F3F4F50
S11314A0318320838C93268137812F5F3F4F37838D
S11314B0268314C08B01EC01FB010084F185E02D2F
S11314C00995892BE1F6D80116968D919C91179771
S11314D0019617969C938E931697CE01DF91CF9128
S11314E01F910F910895FA01AA27283051F1203154
S11314F081F1E8946F936E7F6E5F7F4F8F4F9F4FA4
S1131500AF4FB1E03ED0B4E03CD0670F781F891FE5
S11315109A1FA11D680F791F8A1F911DA11D6A0FB3
S1131520711D811D911DA11D20D009F468943F9166
S11315302AE0269F11243019305D3193DEF6CF0165
S11315400895462F4770405D4193B3E00FD0C9F72B
S1131550F6CF462F4F70405D4A3318F0495D31FD98
S11315604052419302D0A9F7EACFB4E0A6959795EB
S1131570879577956795BA95C9F7009761057105C1
S113158008959B01AC010A2E06945795479537950B
S11315902795BA95C9F7620F731F841F951FA01D65
S11315A008952F923F924F925F926F927F928F9203
S11315B09F92AF92BF92CF92DF92EF92FF920F93DE
S11315C01F93CF93DF93CDB7DEB7CA1BDB0B0FB6E8
S11315D0F894DEBF0FBECDBF09942A8839884888A5
S11315E05F846E847D848C849B84AA84B984C8843B
S11315F0DF80EE80FD800C811B81AA81B981CE0F32
S1131600D11D0FB6F894DEBF0FBECDBFED01089516
S1071610F894FFCF78
S11316140000A901200066016B018C018301000014
S11316240404696E697469616C697A696E67204F30
S11316344C45440A0D006C656E677468206F66201F
S11316446C697374202564200A0D00696E697469D9
S1131654616C697A696E67204144430A0D004A6FDC
S113166479737469636B5F792076616C75653A206C
S11316742564200A0D00706C6179006B61727269D3
S11316846572656D6F647573006769676173636F11
S113169472650073657474696E677300686967685A
S10916A473636F72650020
S9030000FC
